:100000000C9434000C94E8020C94BF020C9446004B
:100010000C9446000C9446000C9446000C94460048
:100020000C9446000C9429020C9446000C94460053
:100030000C9446000C9465020C9446000C94460007
:100040000C94A8020C9446000C94D6010C940B025C
:100050000C9401020C9446000C9446000C9446004B
:100060000C9446000C94460011241FBECFEFD8E03C
:10007000DEBFCDBF21E0A0E0B1E001C01D92A532FE
:10008000B207E1F70E9411030C94DC050C94000008
:10009000E0E6F0E08081886180838EE0808380816B
:1000A0008F7D808308958130910541F018F002978B
:1000B00059F0089585B5887F85BD089580918100A8
:1000C000887F8093810008958091B100887F80931C
:1000D000B100089588BD92E0833008F490E024B523
:1000E0002F7C24BD34B5292F2295207F232B24BDBE
:1000F00087BD84B58F7384BD84B59295990F990F90
:10010000907C982B94BD089587BD833060F480E087
:1001100094B59F7394BD94B58295880F880F807CA9
:10012000892B84BD089582E0F3CF88BD833050F4DD
:1001300080E094B59F7C94BD94B58295807F892B97
:1001400084BD089582E0F5CF25E030E030930601CC
:100150002093050194B5916094BD94B5926094BDCF
:1001600087BD92E0833008F490E024B52F7324BD5E
:1001700034B5292F2295220F220F207C232B24BD5A
:1001800088BD84B58F7C84BD84B59295907F982B73
:1001900094BD85B5887F85BD85B590910501892B76
:1001A00085BD0895CF92DF92EF92FF92CF93DF93B8
:1001B000C0912301D09124014B9B7FC0109201017B
:1001C000109202011092030110920401CE010E94CC
:1001D0005300C130D105D1F050F0229709F445C049
:1001E000DF91CF91FF90EF90DF90CF900895109224
:1001F0001101109208011092070110920A01109249
:10020000090116BC85B5816085BDEACF80911D01CD
:1002100090911E01892BF1F410920C0110920B01A8
:1002200010920E0110920D0180910D0190910E011E
:100230009093100180930F0180910B0190910C011C
:1002400090938500809384008091810081608093E9
:100250008100C6CF8FEF9FEF90930C0180930B012D
:10026000D0930E01C0930D01DFCF80911B019091BF
:100270001C01892BC1F410920001109213011092FD
:1002800012018091120190911301909315018093B6
:100290001401809100018093B2008091B1008160CF
:1002A0008093B1009DCF8FEF8093000181E090E0BB
:1002B0009093130180931201E4CFCE010E9453006A
:1002C000C130D105B1F058F0229729F1C092010157
:1002D000D0920201E0920301F092040181CFC6B4F2
:1002E00080E090910901C80ED92ED11CF12CE12C8F
:1002F000EDCF8091840090918500C0900F01D09047
:100300001001F12CE12C7601DD24CC24C80ED91E7D
:10031000E11CF11CDBCFC090B20080E09091140191
:10032000E2CF4098419843984298089582309105D1
:1003300079F08330910579F0019729F0409A41983E
:10034000439A429808954098419A4398429A089552
:100350004098419AF5CF409A4198F7CF5C9A83E054
:100360008A95F1F700005C9880E04B991DC08150A0
:10037000E1F74B9B02C08150E1F783EC99E00197D4
:10038000F1F700C0000060910101709102018091BD
:100390000301909104010E941F0520E030E048E62F
:1003A00052E40E947E04089580E0E3CF1F920F92F2
:1003B0000FB60F9211248F939F93EF93FF93E091C9
:1003C0001901F0911A01CF01019690931A018093BF
:1003D00019018091C600808380911801815080931B
:1003E0001801811105C08091C1008F778093C100F1
:1003F000FF91EF919F918F910F900FBE0F901F90E3
:1004000018951F920F920FB60F9211240F900FBEE6
:100410000F901F9018951F920F920FB60F921124F4
:100420008F93EF93FF93E0911601F0911701808174
:10043000882339F03196F0931701E09316018093E9
:10044000C600FF91EF918F910F900FBE0F901F90FC
:1004500018951F920F920FB60F9211242F933F936E
:100460008F939F9320911B0130911C018091140167
:10047000909115012115310571F4019690931501A4
:10048000809314019F918F913F912F910F900FBEF8
:100490000F901F9018950197909315018093140168
:1004A000892B81F72130310521F485B5887F85BD01
:1004B000E9CF8091120190911301909315018093DF
:1004C00014018091110186BDDDCF1F920F920FB6EE
:1004D0000F9211242F933F938F939F9320911D018F
:1004E00030911E0180910F0190911001211531056D
:1004F00071F401969093100180930F019F918F9159
:100500003F912F910F900FBE0F901F90189501975C
:100510009093100180930F01892B81F721303105D1
:1005200031F480918100887F80938100E7CF8091B2
:100530000D0190910E019093100180930F01809115
:100540000B0190910C019093850080938400D6CF8D
:100550001F920F920FB60F9211248F939F93809149
:10056000090190910A01019690930A018093090173
:100570009F918F910F900FBE0F901F9018951F9213
:100580000F920FB60F9211242F933F934F935F93C7
:100590006F937F938F939F93AF93BF93EF93FF934B
:1005A000E0911F01F0912001309709F00995FF912A
:1005B000EF91BF91AF919F918F917F916F915F91DB
:1005C0004F913F912F910F900FBE0F901F90189554
:1005D0001F920F920FB60F9211242F933F934F93B8
:1005E0005F936F937F938F939F93AF93BF93EF939B
:1005F000FF93E0912101F0912201309709F00995D4
:10060000FF91EF91BF91AF919F918F917F916F91EA
:100610005F914F913F912F910F900FBE0F901F90C0
:10062000189584B7877F84BF80916000886180932C
:100630006000109260008FB780688FBF8FEF84B921
:1006400087B980EF8AB915B818B884E08BB9809162
:100650006900816080936900809169008D7F80933B
:100660006900E89A88E490E0909322018093210148
:10067000C9B1C2FBCC27C0F9CC2309F495C0809145
:10068000690084608093690080916900877F80930E
:100690006900E99A82ED90E09093200180931F0118
:1006A00010921E0110921D0180916F008160809355
:1006B0006F0081E090E090932401809323018FEFFD
:1006C0000E94A4000E94AE016B017C0120E030E09A
:1006D000A9010E947904882351F020E030E040EF26
:1006E00051E4C701B6010E94D10587FD0BC090E01F
:1006F00080E00E94960187EA91E60197F1F700C039
:100700000000E0CF81E090E00E9496012FE966E8CA
:1007100081E0215060408040E1F700C000000E946D
:10072000910183E090E00E94960183E294EF0197AB
:10073000F1F700C000000E9491010E94AE016B0120
:100740007C0182E090E00E9496019FE926E861E04A
:10075000915020406040E1F700C000000E949101EC
:100760000E94AE019B01AC018FE996E861E08150E7
:1007700090406040E1F700C00000C701B6010E9450
:10078000D10518160CF0B7CF83E090E00E949601D7
:100790008FE996E821E0815090402040E1F700C0C9
:1007A00000000E949101A7CF8091C00082608093D9
:1007B000C0008CE090E09093C5008093C40086E078
:1007C0008093C2008091C2008093C2008091C200D9
:1007D0008093C2008091C10088618093C10080E055
:1007E0000E94A400D9E18091C00087FFFCCF8091D6
:1007F000C6009091C00095FFFCCF8093C600EEEB41
:10080000E80FE23108F062C0F0E0E75FFB4F0C94C4
:10081000D60521046604600466041B042A045A04F5
:1008200043045D04660424046604660466046604E6
:1008300066042704600490E080E00E9496018C2FFB
:1008400042C081E090E0F9CF82E090E0F6CF83E013
:1008500090E0F3CF90E080E00E9496016C2F70E072
:1008600090E080E00E94210526E636E646EA5FE356
:100870000E947E040E94F004862F0E9484008C2F28
:100880000E949500B0CF90E080E00E9496018C2FEE
:100890000E9484006C2F70E090E080E00E942105AF
:1008A00026E636E646EA5FE30E947E040E94F004F4
:1008B000862FE6CF81E090E0CFCF81E090E0E5CFDA
:1008C0000E94910180E00E946A008DCF813729F457
:1008D0008FEF0E946A00CFEF86CF90ED980F9A308D
:1008E00028F48D9FC02D1124C05BA9CF0E949101D7
:1008F0007ACF0E945C0508F481E008950E9492047A
:100900000C9497050E94900558F00E94890540F0CC
:1009100029F45F3F29F00C94800551110C94CB050C
:100920000C9486050E94A80568F39923B1F355231A
:1009300091F3951B550BBB27AA27621773078407F2
:1009400038F09F5F5F4F220F331F441FAA1FA9F388
:1009500035D00E2E3AF0E0E832D091505040E69576
:10096000001CCAF72BD0FE2F29D0660F771F881FD7
:10097000BB1F261737074807AB07B0E809F0BB0BCA
:10098000802DBF01FF2793585F4F3AF09E3F5105DE
:1009900078F00C9480050C94CB055F3FE4F3983E0F
:1009A000D4F3869577956795B795F7959F5FC9F7C7
:1009B000880F911D9695879597F90895E1E0660F48
:1009C000771F881FBB1F621773078407BA0720F0C1
:1009D000621B730B840BBA0BEE1F88F7E09508952A
:1009E0000E94B00588F09F5798F0B92F9927B7510A
:1009F000B0F0E1F0660F771F881F991F1AF0BA95C3
:100A0000C9F714C0B13091F00E94CA05B1E0089551
:100A10000C94CA05672F782F8827B85F39F0B93F43
:100A2000CCF3869577956795B395D9F73EF4909575
:100A30008095709561957F4F8F4F9F4F0895E894F3
:100A400009C097FB3EF490958095709561957F4F16
:100A50008F4F9F4F9923A9F0F92F96E9BB279395C4
:100A6000F695879577956795B795F111F8CFFAF4D4
:100A7000BB0F11F460FF1BC06F5F7F4F8F4F9F4F05
:100A800016C0882311F096E911C0772321F09EE863
:100A9000872F762F05C0662371F096E8862F70E0C9
:100AA00060E02AF09A95660F771F881FDAF7880FA3
:100AB0009695879597F90895990F0008550FAA0BF9
:100AC000E0E8FEEF16161706E807F907C0F0121661
:100AD0001306E407F50798F0621B730B840B950B64
:100AE00039F40A2661F0232B242B252B21F40895B9
:100AF0000A2609F4A140A6958FEF811D811D089556
:100B000097F99F6780E870E060E008959FEF80ECC0
:100B1000089500240A941616170618060906089563
:100B200000240A9412161306140605060895092EC9
:100B30000394000C11F4882352F0BB0F40F4BF2B38
:100B400011F460FF04C06F5F7F4F8F4F9F4F089578
:100B500057FD9058440F551F59F05F3F71F047956E
:100B6000880F97FB991F61F09F3F79F08795089553
:100B7000121613061406551FF2CF4695F1DF08C072
:100B8000161617061806991FF1CF8695710561058F
:100B900008940895E894BB2766277727CB0197F937
:100BA00008950E945C0508F48FEF0895EE0FFF1F73
:0C0BB0000590F491E02D0994F894FFCF1B
:00000001FF
